:100000000C9462000C948A000C948A000C948A0070
:100010000C948A000C948A000C948A000C948A0038
:100020000C948A000C948A000C948A000C948A0028
:100030000C948A000C948A000C948A000C948A0018
:100040000C949B020C948A000C940B030C94E50214
:100050000C948A000C948A000C948A000C948A00F8
:100060000C948A000C948A000000000024002700F1
:100070002A0000000000250028002B0000000000DE
:1000800023002600290004040404040404040202DA
:100090000202020203030303030301020408102007
:1000A0004080010204081020010204081020000012
:1000B0000008000201000003040700000000000027
:1000C0000000690511241FBECFEFD8E0DEBFCDBF11
:1000D00011E0A0E0B1E0E4E1FFE002C005900D9284
:1000E000AC32B107D9F721E0ACE2B1E001C01D921A
:1000F000A23DB207E1F710E0C2E6D0E004C02197CC
:10010000FE010E948207C136D107C9F70E9482030F
:100110000C9488070C940000833081F028F481301F
:1001200099F08230A9F008958730A9F08830C9F09D
:100130008430B1F4809180008F7D03C08091800075
:100140008F7780938000089584B58F7784BD08955C
:1001500084B58F7DFBCF8091B0008F778093B00006
:1001600008958091B0008F7DF9CFCF93DF93282F32
:1001700030E0F901E255FF4F8491F901E656FF4F57
:10018000D491F901EA57FF4FC491CC23A1F081111A
:100190000E948C00EC2FF0E0EE0FFF1FE458FF4FA1
:1001A000A591B491EC91ED2381E090E009F480E019
:1001B000DF91CF91089580E090E0FACF1F93CF9325
:1001C000DF93282F30E0F901E255FF4F8491F901C8
:1001D000E656FF4FD491F901EA57FF4FC491CC2363
:1001E000A9F0162F81110E948C00EC2FF0E0EE0F89
:1001F000FF1FEE58FF4FA591B4918FB7F894EC9183
:10020000111108C0D095DE23DC938FBFDF91CF9111
:100210001F910895DE2BF8CFCF93DF9390E0FC0180
:10022000E656FF4F24918A579F4FFC018491882303
:10023000D1F090E0880F991FFC01E859FF4FA5917C
:10024000B491FC01EE58FF4FC591D49161110EC0DD
:100250009FB7F8948C91E22FE0958E238C932881A0
:10026000E223E8839FBFDF91CF9108958FB7F89481
:10027000EC91E22BEC938FBFF6CFAF92BF92CF926F
:10028000DF92EF92FF920F931F93CF93DF936C0156
:100290007B018B01040F151FEB015E01AE18BF0837
:1002A000C017D10759F06991D601ED91FC910190E9
:1002B000F081E02DC6010995892B79F7C501DF9101
:1002C000CF911F910F91FF90EF90DF90CF90BF9053
:1002D000AF900895FC01538D448D252F30E0842F7D
:1002E00090E0821B930B541710F0CF96089501975E
:1002F0000895FC01918D828D981761F0A28DAE0F4B
:10030000BF2FB11D5D968C91928D9F5F9F73928FD1
:1003100090E008958FEF9FEF0895FC01918D828DFD
:10032000981731F0828DE80FF11D858D90E00895CA
:100330008FEF9FEF0895FC01918D228D892F90E022
:10034000805C9F4F821B91098F739927089585E3E5
:1003500091E00E949B0121E0892B09F420E0822F8B
:10036000089580E090E0892B29F00E94A701811177
:100370000C9400000895FC01A48DA80FB92FB11DA5
:10038000A35ABF4F2C91848D90E001968F739927CB
:10039000848FA689B7892C93A089B1898C918370A9
:1003A00080648C93938D848D981306C00288F389A2
:1003B000E02D80818F7D80830895EF92FF920F93CF
:1003C0001F93CF93DF93EC0181E0888F9B8D8C8D01
:1003D00098131AC0E889F989808185FF15C09FB7F5
:1003E000F894EE89FF896083E889F98980818370B8
:1003F000806480839FBF81E090E0DF91CF911F9167
:100400000F91FF90EF900895F62E0B8D10E00F5F87
:100410001F4F0F731127E02E8C8D8E110CC00FB65D
:1004200007FCFACFE889F989808185FFF5CFCE01F5
:100430000E94BB01F1CFEB8DEC0FFD2FF11DE35AB4
:10044000FF4FF0829FB7F8940B8FEA89FB89808178
:100450008062CFCFCF93DF93EC01888D8823B9F0F2
:10046000AA89BB89E889F9898C9185FD03C08081BF
:1004700086FD0DC00FB607FCF7CF8C9185FFF2CF3C
:10048000808185FFEDCFCE010E94BB01E9CFDF91D6
:10049000CF910895FC0101900020E9F73197AF0159
:1004A000481B590BBC0185E391E00C943D018F92F0
:1004B0009F92AF92BF920F931F93CF93DF93CDB7CD
:1004C000DEB7A1970FB6F894DEBF0FBECDBF19A25D
:1004D000423008F44AE08E010F5D1F4F842E912CAC
:1004E000B12CA12CA50194010E946007E62FB9014F
:1004F000CA01EA30F4F4E05DD801EE938D01232BBC
:10050000242B252B79F790E080E0109719F0CD018E
:100510000E944A02A1960FB6F894DEBF0FBECDBF6F
:10052000DF91CF911F910F91BF90AF909F908F90CF
:100530000895E95CE1CF1F920F920FB60F9211243C
:100540002F933F938F939F93AF93BF9380913101EC
:1005500090913201A0913301B0913401309130017A
:1005600023E0230F2D3758F50196A11DB11D2093CF
:1005700030018093310190933201A0933301B09305
:10058000340180912C0190912D01A0912E01B09108
:100590002F010196A11DB11D80932C0190932D0177
:1005A000A0932E01B0932F01BF91AF919F918F9196
:1005B0003F912F910F900FBE0F901F90189526E836
:1005C000230F0296A11DB11DD2CF1F920F920FB61D
:1005D0000F9211242F933F934F935F936F937F93C9
:1005E0008F939F93AF93BF93EF93FF9385E391E036
:1005F0000E94BB01FF91EF91BF91AF919F918F91AD
:100600007F916F915F914F913F912F910F900FBE0E
:100610000F901F9018951F920F920FB60F921124F2
:100620002F938F939F93EF93FF93E0914501F09168
:1006300046018081E0914B01F0914C0182FD1BC08D
:10064000908180914E018F5F8F7320914F018217AF
:1006500041F0E0914E01F0E0EB5CFE4F958F80930E
:100660004E01FF91EF919F918F912F910F900FBEAF
:100670000F901F9018958081F4CFCF92DF92EF9268
:10068000FF920F931F93E82FF92F05C00150110916
:100690002109310961F1908196239417B9F305C0BE
:1006A000015011092109310911F190819623941308
:1006B000F7CFC12CD12CE12CF12C0AC08FEFC81A36
:1006C000D80AE80AF80A0C151D052E053F0579F031
:1006D00080818623841791F36C2D7D2D8E2D9F2D87
:1006E0001F910F91FF90EF90DF90CF90089560E001
:1006F00070E080E090E01F910F91FF90EF90DF900D
:10070000CF900895789484B5826084BD84B581606B
:1007100084BD85B5826085BD85B5816085BD8091CC
:100720006E00816080936E00109281008091810044
:10073000826080938100809181008160809381003C
:10074000809180008160809380008091B1008460FE
:100750008093B1008091B00081608093B00080915F
:100760007A00846080937A0080917A00826080931E
:100770007A0080917A00816080937A0080917A007B
:10078000806880937A001092C10060E082E00E944D
:100790000C0160E083E00E940C0161E08AE00E94AD
:1007A0000C0161E08BE00E940C0161E08CE00E9492
:1007B0000C0161E08DE00E940C0161E087E00E9485
:1007C0000C0160E086E00E940C01E0914501F0918F
:1007D000460182E08083E0914101F0914201108264
:1007E000E0914301F09144018FEC808310924D0120
:1007F000E0914901F0914A0186E08083E091470150
:10080000F0914801808180618083E0914701F091FF
:100810004801808188608083E0914701F091480120
:10082000808180688083E0914701F0914801808158
:100830008F7D808393E2292E312CC0E0D0E060E0F0
:1008400087E00E94DE0083E090E00197F1F761E02D
:1008500087E00E94DE00C1010197F1F760E087E0C8
:100860000E94DE00E0EAF0E06491ECE8F0E08491C0
:10087000E82FF0E0EE0FFF1FE458FF4F85919491B1
:1008800000E412E42FE030E0462F0E943D036115A2
:1008900071058105910529F06F5F7F4F8F4F9F4F45
:1008A0009F700E94390626E933E44BE05DE30E9425
:1008B000EE0620E030E040E05FE30E94EE066B01D0
:1008C0007C0182E191E00E944A02A7019601C701E2
:1008D000B6010E945B07882369F18DE191E00E94D7
:1008E0004A0289E291E00E944A0220E030E040E7BB
:1008F00051E4C701B6010E94030687FFADC060E066
:100900008AE00E94DE0060E08BE00E94DE0060E092
:100910008CE00E94DE0060E08DE00E94DE00209707
:1009200009F48DCF0E94A701882309F488CF0E9483
:10093000000085CF46015701E894B7F82FEF3FEF4D
:100940004FE75FE7C501B4010E945B0781110DC04D
:100950002FEF3FEF4FE75FE7C501B4010E940306A9
:1009600018161CF481E291E0BACF2FEF3FEF4FE76A
:100970005FE4C701B6010E94E90618161CF485E27F
:1009800091E0ADCF2FEF3FEF4FE75FECC701B6012E
:100990000E94030687FDF3CF20E030E0A901C701E4
:1009A000B6010E94030687FF54C06DE285E391E023
:1009B0000E94DD01C701B60190582AE037ED43EAF5
:1009C0005BE30E9497052B013C010E9408064B0146
:1009D0005C010E9437069B01AC01C301B2010E9479
:1009E00096052B013C014AE0C501B4010E94570263
:1009F0006EE285E391E00E94DD0120E030E040E21C
:100A000051E4C301B2010E94EE062B013C010E9499
:100A100008064B01B12CA12C4AE0C501B4010E948B
:100A20005702C501B4010E9437069B01AC01C30106
:100A3000B2010E94960520E030E040E251E40E94BD
:100A4000EE060E94080690E080E04AE00E9457020D
:100A500048CFC701B601B1CF82E00E94B5007C014A
:100A600083E00E94B500F1E0EF16F104D1F481308B
:100A7000910579F461E08DE00E94DE0060E08CE099
:100A80000E94DE0061E08BE00E94DE0060E08AE010
:100A900044CF892BC1F460E08DE00E94DE0061E06C
:100AA000EECFEF2881F4019771F461E08DE00E94B0
:100AB000DE0060E08CE00E94DE0060E08BE00E94DF
:100AC000DE0061E0E4CF60E08DE00E94DE0061E0E6
:100AD000F1CFE5E3F1E01382128288EE93E0A0E02B
:100AE000B0E084839583A683B78384E091E091830B
:100AF000808385EC90E09587848784EC90E09787ED
:100B0000868780EC90E0918B808B81EC90E0938BDA
:100B1000828B82EC90E0958B848B86EC90E0978BB7
:100B2000868B118E128E138E148E08955058BB270B
:100B3000AA270E94AE050C94AF060E94A10638F0C9
:100B40000E94A80620F039F49F3F19F426F40C9473
:100B50009E060EF4E095E7FB0C949806E92F0E94A0
:100B6000C00658F3BA17620773078407950720F089
:100B700079F4A6F50C94E2060EF4E0950B2EBA2F4C
:100B8000A02D0B01B90190010C01CA01A001112493
:100B9000FF27591B99F0593F50F4503E68F11A163F
:100BA000F040A22F232F342F4427585FF3CF4695D0
:100BB00037952795A795F0405395C9F77EF41F16F2
:100BC000BA0B620B730B840BBAF09150A1F0FF0FBC
:100BD000BB1F661F771F881FC2F70EC0BA0F621FA8
:100BE000731F841F48F4879577956795B795F79598
:100BF0009E3F08F0B0CF9395880F08F09927EE0F2D
:100C00009795879508950E94740608F481E00895E9
:100C10000E94C80688F09F5798F0B92F9927B751BE
:100C2000B0F0E1F0660F771F881F991F1AF0BA9590
:100C3000C9F714C0B13091F00E94E206B1E0089506
:100C40000C94E206672F782F8827B85F39F0B93FF8
:100C5000CCF3869577956795B395D9F73EF4909543
:100C60008095709561957F4F8F4F9F4F0895E894C1
:100C700009C097FB3EF490958095709561957F4FE4
:100C80008F4F9F4F9923A9F0F92F96E9BB27939592
:100C9000F695879577956795B795F111F8CFFAF4A2
:100CA000BB0F11F460FF1BC06F5F7F4F8F4F9F4FD3
:100CB00016C0882311F096E911C0772321F09EE831
:100CC000872F762F05C0662371F096E8862F70E097
:100CD00060E02AF09A95660F771F881FDAF7880F71
:100CE0009695879597F90895990F0008550FAA0BC7
:100CF000E0E8FEEF16161706E807F907C0F012162F
:100D00001306E407F50798F0621B730B840B950B31
:100D100039F40A2661F0232B242B252B21F4089586
:100D20000A2609F4A140A6958FEF811D811D089523
:100D300097F99F6780E870E060E008959FEF80EC8E
:100D4000089500240A941616170618060906089531
:100D500000240A9412161306140605060895092E97
:100D60000394000C11F4882352F0BB0F40F4BF2B06
:100D700011F460FF04C06F5F7F4F8F4F9F4F089546
:100D800057FD9058440F551F59F05F3F71F047953C
:100D9000880F97FB991F61F09F3F79F08795089521
:100DA000121613061406551FF2CF4695F1DF08C040
:100DB000161617061806991FF1CF8695710561055D
:100DC00008940895E894BB2766277727CB0197F905
:100DD00008950E94740608F48FEF08950E94010799
:100DE0000C94AF060E94A10638F00E94A80620F0DD
:100DF000952311F00C9498060C949E0611240C94E3
:100E0000E3060E94C00670F3959FC1F3950F50E072
:100E1000551F629FF001729FBB27F00DB11D639FAC
:100E2000AA27F00DB11DAA1F649F6627B00DA11D52
:100E3000661F829F2227B00DA11D621F739FB00DF8
:100E4000A11D621F839FA00D611D221F749F332768
:100E5000A00D611D231F849F600D211D822F762F01
:100E60006A2F11249F5750409AF0F1F088234AF0DE
:100E7000EE0FFF1FBB1F661F771F881F915050404A
:100E8000A9F79E3F510580F00C9498060C94E30658
:100E90005F3FE4F3983ED4F3869577956795B795D1
:100EA000F795E7959F5FC1F7FE2B880F911D9695EB
:100EB000879597F908950E947406880B990B0895F9
:100EC000A1E21A2EAA1BBB1BFD010DC0AA1FBB1F4E
:100ED000EE1FFF1FA217B307E407F50720F0A21BC0
:100EE000B30BE40BF50B661F771F881F991F1A942D
:100EF00069F760957095809590959B01AC01BD0157
:100F0000CF010895EE0FFF1F0590F491E02D099495
:040F1000F894FFCF83
:100F140000000000DD013D016A012A029B01790104
:100F24008D0144697374616E63653A20006E616E6D
:0C0F340000696E66006F7666000D0A0012
:00000001FF
